:1000000097EF0AF0F76A140FF66E000EF722090058
:10001000F5501200000000000000005F0000000723
:10002000000700147F147F14242A7F2A1223130848
:10003000646236495522500005030000001C22412D
:10004000000041221C0014083E081408083E08085D
:100050000050300000080808080800606000002018
:10006000100804023E5149453E00427F4000426173
:100070005149462141454B311814127F10274545FF
:1000800045393C4A49493001710905033649494916
:1000900036064949291E0036360000005636000053
:1000A00008142241001414141414004122140802EC
:1000B00001510906324979413E7E1111117E7F4975
:1000C0004949363E414141227F4141221C7F4949F5
:1000D00049417F090909013E4149497A7F080808D9
:1000E0007F00417F41002040413F017F08142241B1
:1000F0007F404040407F020C027F7F0408107F3E1B
:100100004141413EF76A140FF66E010EF7220900D5
:10011000F55012007F090909063E4151215E7F0911
:10012000192946464949493101017F01013F4040B3
:10013000403F1F2040201F3F4038403F63140814B9
:100140006307087008076151494543007F4141003A
:1001500002040810200041417F0004020102044013
:1001600040404040000102040020545454787F482D
:100170004444383844444420384444487F38545434
:100180005418087E0901020C5252523E7F080404A2
:100190007800447D40002040443D007F102844000A
:1001A00000417F40007C041804787C0804047838FF
:1001B000444444387C14141408081414187C7C0833
:1001C0000404084854545420043F4440203C404018
:1001D000207C1C2040201C3C4030403C44281028FF
:1001E000440C5050503C4464544C44000836410088
:1001F00000007F0000004136080010080810087851
:1002000046414678120FF66E020EF7220900F550AD
:1002100012000000000000000000000000000000CC
:100220000000000000000000000F080000000000B7
:100230000000000000000000000000FFFFFFFFFFC3
:10024000FFFFFF0F030323E3830333E7F7E7CF9FAA
:10025000FFFFFFFFFFFFFFFFFFFFFFFFFFFFFFFFAE
:10026000FFFFFFFFFFFF0000000000000000000094
:10027000000000000000010382C666663210000024
:100280000000F8FCFCFCFCFCFCFCFCFC7CBCFCA7BF
:10029000A7474343030303FFC00000FFFFFFFCFF2A
:1002A000FFFFFFFFFFFFFFFFFFFFFFFFFFFFFFFF5E
:1002B000FFFFFFFFFFFFFFFFFFFF00000000000048
:1002C000000000000000000000000000000000E04E
:1002D000E0E000C0C0C0BFFFBFFF7FFFFFFF637C47
:1002E000736F7A8486908F808080C0FFFF58404172
:1002F000FFFFFFFFFFFFFFFFFFFFFFFFFFFFFFFF0E
:10030000FFFFFFFFFFFFFFFFFFFFFFFFFFFF0000FB
:1003100000000000000000000000000000000000DD
:100320000000000F3F7FFFFFFFFFFDFDFDF1F1F03B
:10033000FDFDFFFFFFFFFFF80000003173F2F273D5
:1003400032020201FFFFFFFFFFFFFFFFFFFFFFFF82
:10035000FFFFFFFFFFFFFFFFFFFFFFFFFFFFFFFFAD
:10036000FFFF00000000000000000000000000008F
:10037000000000000000000000000101031F3F7F9B
:10038000FFFFFFFFFFFFBFBFBFFFE7C78000000009
:100390000000000080C0E0F8FFFFFFFFFFFFFFFF4D
:1003A000FFFFFFFFFFFFFFFFFFFFFFFFFFFFFFFF5D
:1003B000FFFFFFFFFFFF0000000000000000000043
:1003C000000000000000000000000000000000002D
:1003D00000000000C0E1FBF7F7EFFFDFDFDEDE2CFF
:1003E000203010180C040603F9FFFFFFFFFFFFFF8A
:1003F000FFFFFFFFFFFFFFFFFFFFFFFFFFFFFFFF0D
:10040000FFFFFFFFFFFFFFFFFFFF180FF66E040E59
:10041000F7220900F5501200FFFFFFFFFFFFFFFF6B
:10042000FFFFFF7F3F1F1F1F1F3F1F1FBFFFFFFF5C
:10043000FFFFFFFFFFFFFFFBFFFFFFFFFFFFFFFFD0
:10044000FFFFFFFFFFFFFFFFFFFF1F1F1F1F1F3FDC
:100450007FFFFFFFFFFFFFFFFFFFFFFFFFFFFF1F0C
:100460001F1FFFFFFFFFFFFFFFFFFFFFFFFFFFFF5C
:10047000FFFFFFFFFFFFFF000000C1C1C100000040
:10048000FF03010171010101010101710103030178
:10049000010171010303FF000000000000FF0000E4
:1004A00000000000FF080808FF030101F1F1F1035B
:1004B000010171000000FFFFFFFFFFFFFFFFFFFFD3
:1004C000FFFFFFFFFFFFFFFFFFFFFFF8F8F8FFFF51
:1004D000FFFCF8F8FDFEFCF8F8F8F8FCE0C0C0F806
:1004E000F8FCFEE0C0C0E0F8FCFEFFFFFEC2C0E08A
:1004F000F0FFF8F8F8F8F8FCFFF8F8F8FFF8F8F86B
:10050000FFFFFFFEFCF8F8F8F8F8FFFFFFFFFFFF22
:10051000FFFFFFFFFFFFFFFFFFFFFFFFFFFFFFFFEB
:10052000FFFFFFFFFFFFFFFFFFFFFFFFFFFFFFFFDB
:10053000FFFFFFFFFFFFFFFFFFFFFF7F3F3F7F3F0B
:100540007FFFFFFFFFFFFFFFFFFFFFFFFFFFFFFF3B
:10055000FFFFFFFFFFFFFFFFFFFFFFFFFFFFFFFFAB
:10056000FFFFFFFFFFFFFFFFFFFFFFFFFFFFFFFF9B
:10057000FFFFFFFFFFFFFFFFFFFFFFFFFFFFFFFF8B
:10058000FFFFFFFFFFFFFFFFFFFFFFFFFDF8C8C9F1
:10059000C6C0BAFCFDFCFFFFFFFFFFFFFFFFFFFF30
:1005A000FFFFFFFFFFFFFFFFFFFFFFFFFFFFFFFF5B
:1005B000FFFFFFFFFFFFFFFFFFFFFFFFFFFFFFFF4B
:1005C000FFFFFFFFFFFFFFFFFFFFFFFFFFFFFFFF3B
:1005D000FFFFFFFFFFFFFFFFFFFFFFFFFFFFFFFF2B
:1005E000FFFFFFFFFFFFFFFFFFFFFFFFFFFFFFFF1B
:1005F000FFFFFFFFFFFFFFFFFFFFFFFFFFFFFFFF0B
:10060000FFFFFFFFFFFFFFFFFFFFFFFFFFFFFFFFFA
:100610001E0FF66E060EF7220900F5501200FFFFBE
:10062000FFFFFFFFFFFFFFFFFFFFFFFFFFFFFFFFDA
:10063000FFFFFFFFFFFFFFFFFFFFFFFFFFFFFFFFCA
:10064000FFFFFFFFFFFFFFFFFFFFFFFFFFFFFFFFBA
:10065000FFFFFFFFFFFFFFFFFFFFFFFFFFFFFFFFAA
:10066000FFFFFFFFFFFFFFFFFFFFFFFFFFFFFFFF9A
:10067000FFFFFFFFFFFFFFFFFFFFFFFFFFFFFFFF8A
:10068000FFFFFFFFFFFFFF8181F5F5FF81FF87B7C8
:100690008787FF07B787CFFF07B787FFC3C31F034E
:1006A000FF8181A581FF8BFF8787F7F7FF87B781E0
:1006B000FFFFFFFFFFFFFFFFFFFFFFFFFFFFFFFF4A
:1006C000FFFFFFFFFFFFFFFFFFFFFFFFFFFFFFFF3A
:1006D000FFFFFFFFFFFFFFFFFFFFFFFFFFFFFFFF2A
:1006E000FFFFFFFFFFFFFFFEFFFFFFFEFEFFBFFF5D
:1006F000BFFFFEFEFFFFFFFFFFFFFFFFFFFFFFFF4C
:10070000FFFFFFFFFFFFFFFFFFFFFFFFFFFFFFFFF9
:10071000FFFFFFFFFFFFFFFFFFFFFFFFFFFFFFFFE9
:10072000FFFFFFFFFFFFFFFFFFFFFFFFFFFFFFFFD9
:10073000FFFFFFFFFFFFFFFFFFFF7FFFFFFFFFFF49
:10074000FFFFFFFFFFFFFFFFFFFFFFFFFFFFFFFFB9
:10075000FFFFFFFFFFFFFFFFFFFFFFFFFFFFFFFFA9
:10076000FFFFFFFFFFFFFFFFFFFFFFFFFFFFC1E0F6
:10077000E0E0E1C1E1E3E1C1E1E1E0E0E0E1E1E1AC
:10078000E1E1E0E0E1E1E0E0E0E0E0E0E0E0E0E065
:10079000E0E0E0E1E1E0E1E1E1E3E3E3E3C1E1E165
:1007A000E3E1C1C1E1E1C1E1E0E0E1C1E1E3E1C1D7
:1007B000E1E1E0E0E0E1E1E1E1E1E0E0E1E1E0E030
:1007C000E0E003030303030303030303030303033F
:1007D00003030303030303030303030303030303E9
:1007E00003030303030303030303030303030303D9
:1007F00003030303030303030303030303030303C9
:1008000003030303030303030303030303030303B8
:10081000030303030303240FF66E080EF7220900F7
:10082000F5501200F0F0F0F0F0F0F0F0F0F0F0E041
:10083000F0F0F07070F0F0F0F0F0F0F0F0F0F0F0B8
:10084000F0F0F0F0F0F0F0F0F0F0F0F0F0F0F0F0A8
:10085000F0F0F0F0F0F0F0F0F0F0F0F0F0F0F0F098
:10086000F0F0F0F0F0F0F0F0F0F0F070B0D0F0E078
:100870007030000000000000FFFFFFFFFFFFFFFFE0
:10088000FFFFFFFFFFFFFFFEFFFFFFF7F7F7FFFF91
:100890007FFF7FFFFFFFFFFFFFFFFFFFFFFFFFFF68
:1008A0007F7F3F3F0F1F1FFFFFFFFFFFFFFFFFFF88
:1008B000FFFFFFFFFF7FBFDFFFEF773B1D1E0F072F
:1008C000030101000000000000000000FFFFF6F639
:1008D000171616171616F7F7FE1E7E5FDEDF1E1EB2
:1008E0001F1EFE42C2C3C2C247C2C2C342F67F1F1E
:1008F0005F9EDE1D000205CBE9E6E0F0FCFDFC7F1B
:10090000BFFFFFEF773B1D1F0E0703010100000033
:1009100000000000000000000000000000000000D7
:100920000F0F0F0F0C0C0C0C0C0C0F0F0F0E0E0CEE
:100930000C0C0C0C0C0C0F0C0C0C0C0C0C0C0C0CF4
:100940000C0C0F0E0C0C0C0C0C0C0C0F0F0F0F07DB
:1009500005070E070303010000000000000000006F
:100960000000000000000000000000000000000087
:1009700000000000000000F838E000007038F8E0E7
:10098000000080E000402020A0C00000F80000002F
:1009900000E800E0202060C000F8202060C00000D7
:1009A000F8C0E0B01808E800C0602020C000E020D7
:1009B00020E0C00000000008708000C07008E02047
:1009C00020E0C00000000000000000070000060753
:1009D00000040707040407070007050503070000D4
:1009E00007040404040700070000020700070000D2
:1009F00000070000070000010304070003050505C8
:100A000005000700000707000004000000010603BE
:100A10000000070000070700000000002A0FF66E24
:100A20000A0EF7220900F550120000000000000035
:100A300000000000000000000000000000000000B6
:100A400000000000000000000080C8F0E0E0E0E0EE
:100A5000E0E0E060F0C8800000000000000000005E
:100A60000000000000000000000000000000000086
:100A70000000000000000000000000000000000076
:100A80000000000000000000000000000000000066
:100A9000000000000000C0E0E08000ECEFEFEFEEAF
:100AA000EEEFEFEFEFEFEFEEEEEFEFEFEC00C0E089
:100AB000E0C0000000000000000000000000000096
:100AC0000000000000000000000000000000000026
:100AD0000000000000000000000000000000000016
:100AE00000000000000000000000FFFFFFFF00FF0B
:100AF000FFFFFFFFFFFFFFFFFFFFFFFFFFFFFFFF06
:100B0000FF00FFFFFFFF00000000000000000000EA
:100B100000000000000000000000000000000000D5
:100B200000000000000000000000000000000000C5
:100B300000000000000000000000000000000101B3
:100B40000100001F1F1FFFFFFFFF1F1F1F3FFFFFB1
:100B5000FF3F1F1F1F0001010101000000000000F6
:100B60000000000000000000000000000000000085
:100B70000000000000000000000000000000000075
:100B800000000000000000000000000080C04040A5
:100B900040C00080C04040C08000474F4F47C00069
:100BA00000404F4F4FC00000C04040408000C0C0D8
:100BB00000404040408000000000000000000000B5
:100BC0000000000000000000000000000000000025
:100BD0000000000000000000000000000000000015
:100BE000030604040007000F0000000007000C04C7
:100BF00004040701000303020307000107040404BF
:100C000003000707000404040407000000000000BC
:100C100000000000000000000000000000000000D4
:100C20000000300FF66E0C0EF7220900F55012008E
:100C3000000080C0C070303C0C0C0C0C3C3C7CF0C4
:100C4000F040000000000000000000000000000074
:100C50000000000000000000000000000000000094
:100C6000000000000000000000000000000003037E
:100C7000FFFFFF0000000000000000000000000077
:100C800000000000F0FEFF0F010000000000000067
:100C900000000007010000000000C0F030303838CC
:100CA00030F0F0C00000000000C0F030383838F0FC
:100CB000F0F0C000000000C0C0F03030F0F0F0F004
:100CC00030300000FFFFFF000000C0F03030383847
:100CD000F0F0C000003030F0FFFFFF8000000000A7
:100CE000000000000080808080808000FCFFFF000A
:100CF0000000000000031FFFFFF800FCFFFF0000E2
:100D000000000000037FFFFFF800FFFFE30000008A
:100D10000003FFFFFC000000FFFFFF00E0FFFF6398
:100D2000606078181C07070300000000000F3F7F79
:100D3000FCF0C08080000000030303FFFFFF000001
:100D40003F7FFFF0C08000000080C07F3F03003F76
:100D50007FFFF0808000008080F07F3F0300030F62
:100D60000F3F3CF0FCFC8F0300000080FFFFFF8082
:100D7000003F7FFFF0C08080808080800000000006
:100D8000000000000107070707060606060606071B
:100D90000101000000000101070706060607010027
:100DA000000000000001010707060607010100001E
:100DB00000F0F038080E0E07070F3FFEF8F00007AE
:100DC00007070707000000010707070707070101DA
:100DD0000000000000000000000000000000000013
:100DE0000000000000000000000000000000000003
:100DF00000000000000000000000000000000000F3
:100E000000000000077F7FF8E0E0808080E06078ED
:100E10001F070000000000000000000000000000AC
:100E20000000000000000000360FF66E0E0EF722E4
:100E30000900F55012000000000000000000000052
:100E400000000000000000000000000000000000A2
:100E500000000000000000000000000080E0F0F84A
:100E6000FCFEFE7F3F0700000000000000000000C5
:100E70000000000000000000000000000000000072
:100E80000000000000000000000000000000000062
:100E900000000000000000000000000000000080D2
:100EA000C0E0F0F0F8F8F8F8F8F8F8F8F8F8F0F032
:100EB000F7F7F7F7FBF9F9F8FCFCFCFCF8F8F8F0A9
:100EC000E0E0C000000000000000000000000000A2
:100ED0000000000000000000000000000000000012
:100EE0000000000000000000000000000000000002
:100EF00000F8FEFFFFFFFFFFFFFFFFFFFFFFFFFF09
:100F0000FFFFFFFFFFFFFFFFFFFFFFFFFFFFFFFFF1
:100F1000FFFF1F07010000000000000000000000AC
:100F200000000000000000000000000000000000C1
:100F300000000000000000000000000000000000B1
:100F400000000000007FFFFFFFFFFFFFFFFFFFFF2C
:100F5000FFFFFFFFFFFFFFFFFFFFFFFFFFFFFFFFA1
:100F6000FFFFFFFFFFFFF8C080000000000000004F
:100F70000000000000000000000000000000000071
:100F80000000000000000000000000000000000061
:100F900000000000000000000000030F3FFFFFFF03
:100FA000FFFFFFFFFFFFFFFFFFFFFFFFFFFFFFFF51
:100FB000FFFFFFFFFFFFFFFFFFFFFFFFFF7F3E0E73
:100FC0000000000000000000000000000000000021
:100FD0000000000000000000000000000000000011
:100FE0000000000000000000000000000000000001
:100FF000000001070F1F1F3F3F3F3F3F3F1F1F1FC5
:101000000F0F0F1F1F1F3F3F3F3F3F3F1F0F0703A4
:1010100001000000000000000000000000000000CF
:1010200000000000000000000000000000003C0F75
:10103000F66E100EF7220900F550120000000000B5
:1010400000000000000000000000000000000000A0
:101050000000000000000000000000000000000090
:101060000000000000000000000000000000000080
:101070000000000000000000000000000000000070
:101080000000000000000000000000000000000060
:101090000000000000000000000000C0C0C0C04010
:1010A0000000000000000000000000000000000040
:1010B000000000000000000080C0C0000000000030
:1010C0000000000000000000000000000000000020
:1010D000000000C0C0C000000000000000000000D0
:1010E00000000000000000000000000000F0FEFF13
:1010F000FFF3F101F0F0F0F0F0E0C000C0E0F0F03C
:10110000F0F0E000E0F0F070F0E0C000FFFFFFF072
:10111000F0F0F0E000C0E0F0F0F0F0E0C000C0E07F
:10112000F0F0F0F0E08000FFFFFF00E0F0F03000B2
:1011300000000000000000000000000000000000AF
:101140000000FFFFFF0000F0F8FC9C9CFFFFFF0089
:10115000FFFFFF8080C0C07FFFFFDC9C9F9FDF0000
:10116000FFFFFF8080FFFFFF00FFFFFF8080FFFF8A
:10117000FF00FFFFFF80C0FFFFFF00FFFFDE3FFF1C
:10118000F7C0000080000000000000000000000028
:101190000000000000000303030000010303030339
:1011A0000303030001030303030303000103030319
:1011B000030303000303030303030301000001030C
:1011C0000303030100000003030303030100000302
:1011D00003030001030302000300000000000000FD
:1011E00000000000000000000000000000000000FF
:1011F00000000000000000000000000000000000EF
:1012000000000000000000000000000000000000DE
:1012100000000000000000000000000000000000CE
:1012200000000000000000000000000000000000BE
:10123000000000004C61707472696E687069632E02
:10124000696E666F00004D75616C696E686B6965EB
:101250006E2E766E00004C43442035313130000054
:101260002D2D2D2D2D2D2D2D2D2D2D2D2D2D2D2DAE
:101270002D004C6F616420696D61676500007374B7
:1012800072696E673500030E0C5E09E3EA6A0C0EA4
:10129000E96EEF5004E001D000D0EF2EFDD7D6EF7D
:1012A00009F0EA6A0D0EE96EEF500DE0060E016ED0
:1012B000006A002EFED7012EFBD77B0E006E002E9B
:1012C000FED7EF2EF3D71200080E116E11521AE05E
:1012D00092908990020E006E002EFED700D0000082
:1012E00010BE02D0899201D0898292929290898018
:1012F000020E006E002EFED700D00000D8901036EF
:101300001106E4D712009294899492968996020E5F
:10131000006E002EFED700D000000FC010F0D4DF0A
:1013200092968986020E006E002EFED700D0000035
:1013300012000D50070B40090E6E0F6EE4DF0C50CB
:101340007F0B80090E6E0F6EDEDF1200929489848F
:1013500092968996020E006E002EFED700D00000F5
:101360000FC010F0B1DF92968986020E006E002E3B
:10137000FED700D0000012000C6A0D6ADADF010E01
:10138000096EF80E086E085202E1095207E00F6A72
:10139000DDDF0850D8B409060806F5D7120092948C
:1013A000898492968986C80E0C6E6DD7929A899A16
:1013B000320E0D6E76DF929A898A210E0F6EA3DFB0
:1013C000C80E0F6EA0DF120E0F6E9DDF200E0F6E87
:1013D0009ADF090E0F6E97DF320E0D6E62DFCCDFE3
:1013E0000A0E0D6E5EDF080E0F6E8DDF0A0E0D6E9B
:1013F00058DF0C0E0F6E87DF58EF0AF005501F08FC
:10140000D8B035D005507F08D8A031D0046A045038
:1014100004082BE305504F0810E30550E00F050DBD
:10142000F3CF06F004500624036AF2CF0FF0F29EC9
:1014300002EC00F00FBEF28E076E05504F0810E26E
:101440000550B00F050DF3CF06F004500624036AD3
:10145000F2CF0FF0F29E82EC00F00FBEF28E076E1C
:1014600007C00FF073DF042AD2D70F6A6FDF3CEF9B
:101470000AF00EC005F0C2D748EF0AF00900F55295
:101480000CE0F6CF0CF0F7CF0DF0F5CF0EF0F1D762
:101490000CC0F6FF0DC0F7FFF1D71200C150C00B12
:1014A0000F09C16EC290C66A9D8AC00EF21277D72C
:1014B00063DF0C6A0D6A3DDF340EF66E120EF76EB6
:1014C000DDDF0C6A010E0D6E34DF460EF66E120E75
:1014D000F76ED4DF0C6A020E0D6E2BDF560EF66E21
:1014E000120EF76ECBDF0C6A030E0D6E22DF600E5C
:1014F000F66E120EF76EC2DF0C6A040E0D6E19DF67
:10150000720EF66E120EF76EB9DF0C6A050E0D6ED6
:1015100010DF7E0EF66E120EF76EB0DF040E0C6E4C
:10152000FA0E0D6EBEDE0C2EFBD7A2EF0AF0F86AA3
:10153000D09EC150C00B0F09C16E070EB46E0B6A6E
:101540000A6AACD719DF0C6A0D6AF3DE0B6A0A6A05
:101550000B50010817E303E10A50F70813E30BC02F
:1015600003F00A50F2CF0CF0F29E0BC0F7FF0BEC29
:1015700004F00CBEF28E0C6E0F6EE8DE0A2AD8B4B0
:101580000B2AE6D7080E0C6EFA0E0D6E8ADE0C2EB4
:10159000FBD7F2DE0C6A0D6ACCDE0B6A0A6A0B50CE
:1015A000010817E303E10A50F70813E30BC003F047
:1015B0000A50F2CF0CF0F29E0BC0F7FF02EC01F0E4
:1015C0000CBEF28E0C6E0F6EC1DE0A2AD8B40B2A46
:1015D000E6D7080E0C6EFA0E0D6E63DE0C2EFBD7EE
:1015E000CBDE0C6A0D6AA5DE0B6A0A6A0B50010895
:1015F00017E303E10A50F70813E30BC003F00A50A6
:10160000F2CF0CF0F29E0BC0F7FF05EC02F00CBE1F
:10161000F28E0C6E0F6E9ADE0A2AD8B40B2AE6D729
:10162000080E0C6EFA0E0D6E3CDE0C2EFBD7A4DEFF
:101630000C6A0D6A7EDE0B6A0A6A0B50010817E31A
:1016400003E10A50F70813E30BC003F00A50F2CF8E
:101650000CF0F29E0BC0F7FF08EC03F00CBEF28E0C
:101660000C6E0F6E73DE0A2AD8B40B2AE6D7080E6A
:101670000C6EFA0E0D6E15DE0C2EFBD77DDE0C6A9D
:101680000D6A57DE0B6A0A6A0B50010817E303E183
:101690000A50F70813E30BC003F00A50F2CF0CF026
:1016A000F29E0BC0F7FF11EC06F00CBEF28E0C6E32
:1016B0000F6E4CDE0A2AD8B40B2AE6D7080E0C6E41
:1016C000FA0E0D6EEEDD0C2EFBD756DE0C6A0D6A9F
:1016D00030DE0B6A0A6A0B50010817E303E10A5077
:1016E000F70813E30BC003F00A50F2CF0CF0F29EA0
:1016F0000BC0F7FF14EC07F00CBEF28E0C6E0F6EF1
:1017000025DE0A2AD8B40B2AE6D7080E0C6EFA0E8C
:101710000D6EC7DD0C2EFBD72FDE0C6A0D6A09DEBD
:101720000B6A0A6A0B50010816E303E10A50F70836
:1017300012E30BC003F00A50F2CF0CF0F29E0BC084
:10174000F7FF75DC0CBEF28E0C6E0F6EFFDD0A2A01
:10175000D8B40B2AE7D7080E0C6EFA0E0D6EA1DD79
:101760000C2EFBD709DE0C6A0D6AE3DD0B6A0A6AF0
:101770000B50010817E303E10A50F70813E30BC00D
:1017800003F00A50F2CF0CF0F29E0BC0F7FF0EEC04
:1017900005F00CBEF28E0C6E0F6ED8DD0A2AD8B49E
:1017A0000B2AE6D7080E0C6EFA0E0D6E7ADD0C2EA3
:0617B000FBD7C8D60300C0
:020000040030CA
:0E00000004CC380E0087A1000FC00FE00F40A7
:00000001FF
;PIC18F4550
;CRC=7D55  CREATED="14-Apr-16 14:59"
