:100000000E308A009E2E00000A108A100A11820704
:1000100000340034003400340034003400345F34E1
:10002000003400340034073400340734003414340E
:100030007F3414347F34143424342A347F342A3403
:10004000123423341334083464346234363449347B
:100050005534223450340034053403340034003431
:1000600000341C342234413400340034413422340E
:100070001C340034143408343E3408341434083446
:1000800008343E34083408340034503430340034FA
:100090000034083408340834083408340034603438
:1000A0006034003400342034103408340434023412
:1000B0003E345134493445343E34003442347F3484
:1000C00040340034423461345134493446342134AC
:1000D000413445344B3431341834143412347F34C1
:1000E0001034273445344534453439343C344A34AB
:1000F000493449343034013471340934053403341B
:100100003634493449344934363406344934493470
:1001100029341E340034363436340034003400348C
:100120005634363400340034083414342234413424
:10013000003414341434143414341434003441347A
:10014000223414340834023401345134093406346E
:1001500032344934793441343E347E3411341134EC
:1001600011347E347F3449344934493436343E3492
:1001700041344134413422347F34413441342234D7
:100180001C347F3449344934493441347F34093490
:100190000934093401343E344134493449347A3421
:1001A0007F340834083408347F34003441347F34D9
:1001B000413400342034403441343F3401347F34FE
:1001C00008341434223441347F34403440344034D1
:1001D00040347F3402340C3402347F347F340434AE
:1001E000083410347F343E344134413441343E3499
:1001F0000000000000000A148A100A11023E0318D1
:100200008A0A82007F3409340934093406343E34C2
:100210004134513421345E347F3409341934293463
:100220004634463449344934493431340134013494
:100230007F34013401343F344034403440343F345F
:100240001F342034403420341F343F344034383499
:1002500040343F3463341434083414346334073482
:100260000834703408340734613451344934453427
:10027000433400347F344134413400340234043494
:100280000834103420340034413441347F34003495
:1002900004340234013402340434403440344034F1
:1002A0004034403400340134023404340034203407
:1002B00054345434543478347F34483444344434DB
:1002C00038343834443444344434203438344434B6
:1002D000443448347F343834543454345434183427
:1002E00008347E340934013402340C34523452342C
:1002F00052343E347F3408340434043478340034C7
:1003000044347D34403400342034403444343D346B
:1003100000347F3410342834443400340034413401
:100320007F34403400347C3404341834043478345A
:100330007C34083404340434783438344434443459
:10034000443438347C3414341434143408340834C9
:100350001434143418347C347C34083404340434B5
:1003600008344834543454345434203404343F343E
:100370004434403420343C344034403420347C34E1
:100380001C342034403420341C343C344034303469
:1003900040343C34443428341034283444340C344D
:1003A0005034503450343C344434643454344C3439
:1003B00044340034083436344134003400340034DA
:1003C0007F3400340034003441343634083400348F
:1003D000003400340734053407347834463441346B
:1003E000463478340A148A100A1182070134023420
:1003F000033404340534412641294D10D224CE2340
:100400002100412641294D10D322542A4927470073
:10041000412641294D1025322010201020102000A7
:10042000412641294D1025320000412641294D1019
:1004300025322010201020102000412641294D1087
:1004400025320000CD22CE2A0001CF252010201019
:1004500020102010C220C3250001CF25201020101D
:1004600020102010CE22582A0001D330F632A03CB2
:10047000EF3A72102010201063346137E7323F00EA
:10048000CF25201020102010C320CE2145260000AB
:100490002F19301825320001412641294D104F27D0
:1004A0000001412641294D104F2346002010A0296C
:1004B000452AD424CE235310201000014132EA3AB9
:1004C000733A203AE9366510201000004132EA3ACA
:1004D000733A203AE93665004132EA3A733A2032FB
:1004E000613A6510201000014132EA3A733A203235
:1004F000613A6500D3327410613661396D10201095
:1005000020100001D3327410613661396D00D4348B
:10051000ED32A03BE139A039613B65320001C430C6
:10052000F432A03BE139A039613B6532000141362C
:1005300061396D10F7307310F33274005434651064
:10054000E131F4346F37A03BE139A039613B6532CA
:10055000A0346E1053222010A03161396400A02213
:10056000C4245410412641294D1025322000D33295
:100570007410613661396D106F372000D3327410FA
:10058000613661396D106F336600D3327410613695
:1005900061396D106F372000D332741061366139C4
:1005A0006D106F336600A022C424541041264129E7
:1005B0004D1025322000413661396D106F37000132
:1005C000413661396D106F3366002010A022C424BB
:1005D0005410C420D42220102000D33A6E32E13CC3
:1005E00020102010201020100001CD376E32E13C89
:1005F00020102010201020100001D43AE539E430FA
:1006000079102010201020100001D7326437E5390E
:100610006E32E13C201020100001543475397332E1
:10062000E13C201020102010000146396932E13CE5
:1006300020102010201020100001D330F43A723224
:10064000E13C2010201020100001D33A6E32E13C32
:1006500020102010201020102000CD376E32E13CF9
:1006600020102010201020102000D43AE539E4306A
:1006700079102010201020102000D7326437E5397F
:100680006E32E13C20102010200054347539733252
:10069000E13C201020102010200046396932E13C56
:1006A00020102010201020102000D330F43A723295
:1006B000E13C2010201020102000DC015C08073CE9
:1006C000031C742B0310DB0C0318682B8611692B99
:1006D000861583168611861083128614831686105B
:1006E00083128610DC0A5E2B080083160611831223
:1006F00006155908DB005D235A08DB005D238316CD
:1007000006118312061108008316061183120615BE
:100710005608DB005D23831686158E2B8312D701C6
:100720005708073C031CAB2B8316861583128619CA
:100730009B2B03109C2B0314D80C8316861083125A
:100740008614A22BA32B8316861083128610A82B47
:10075000A92BD70A902B831606118312061158086D
:10076000F80008008316061183120611B72BB82B68
:1007700083168610831286108E30D900DA01752315
:100780009030D900A430DA0075238130D60084235C
:100790007808D200520880390319D22B8030D90052
:1007A000DA0175238A150A120A2F54308400831344
:1007B00000080319E82B0230F800F701F70BDE2BD5
:1007C000F80BDD2B9730F700F70BE42B800BDB2BBE
:1007D00008000830E100E1080319042C8316051015
:1007E00083120510F32BF42BE01BF82B8510F92B4B
:1007F000851483168510051083120514FF2B002C19
:100800000310E00DE103EB2B0800831605118312A2
:10081000051183168511831285110E2C0F2C5B0890
:10082000E000E9238316851183128515172C182CF7
:100830000800590807394038DA00DB000524580859
:100840007F398038DA00DB000524080083160511A3
:100850008312051583168511831285112F2C302CD8
:100860005F08E000E9238316851183128515382C73
:10087000392C0800D801D90119240130A500F8301D
:10088000A400A408031D472CA50803194E2CDF0162
:10089000262424080319A503A403412C0800831669
:1008A0000511831205158316851183128515843071
:1008B000F700F70B592C5C2C00008316851283126D
:1008C00085123230D400D523831685128312851603
:1008D0002130DB000524C830DB0005241230DB00AA
:1008E00005242030DB0005240930DB0005243230EC
:1008F000D400D5233A240A30D400D5230830DB00B5
:1009000005240A30D400D5230C30DB0005248A15D9
:100910000A120D2FF701F801600803106118F7079C
:10092000F70CF80CE118F707F70CF80C6119F7074A
:10093000F70CF80CE119F707F70CF80C611AF70738
:10094000F70CF80CE11AF707F70CF80C611BF70726
:10095000F70CF80CE11BF707F70CF80C0800570828
:10096000D800580EF7000F30F7057708DA00E000DE
:100970000A30E1008A247808D70058080F39D707D1
:100980005708F80008005D08A10021081F3C031863
:10099000FD2C21087F3C031CFD2CA0012008043CF9
:1009A000031CFB2C21084F3C031CE42C2108E03ED7
:1009B000DF00E0000530E1008A247808A20020086A
:1009C00022070420F800A30021084F3C0318F62C4E
:1009D0002108B03EDF00E0000530E1008A247808FD
:1009E000A20020082207F820F800A3002308DF0057
:1009F0002624A00ACE2CDF01262408000B08D800EC
:100A00008B13831603178C170C140000000083123D
:100A10000313D81B8B1703170C087F390319522DAA
:100A20000313D80003170D080313D90003170F0889
:100A30000313DA005808DD00C324590803178D009A
:100A400003135A0803178F0003130B08DB008B13E3
:100A5000831603178C170C14000000008312031375
:100A6000DB1B8B1703170C0D0E0D7F390319522D4D
:100A70000313D80003170D080313D90003170F0839
:100A80000313DA005808DD00C324590803178D004A
:100A900003135A0803178F008D0A03198F0A0313D3
:100AA000FE2C0317031308003A24D801D901192496
:100AB00052080319622D013A03196A2D033A0319EA
:100AC000722D7A2D873003178D0002308F000313AB
:100AD000FE24812D8F3003178D0002308F00031309
:100AE000FE24812D973003178D0002308F000313F1
:100AF000FE24812D9E3003178D0002308F000313DA
:100B0000FE240430D300FA30D400D523D30B832D38
:100B100008005E08F8015D020318912D5D08F700DA
:100B20009D2DF7010830DF00DD0DF70D5E0877021F
:100B30000318F700F80DDF0B942D08005808DD00AE
:100B40000A30DE0089257808D9005908E0000A300B
:100B5000E1008A2478085802DA00590EF700F030D4
:100B6000F70577085A04F80008005208D8009E25B7
:100B70007808D8008630D9007808DA007523530841
:100B8000D8009E257808D8008830D9007808DA0087
:100B900075235408D8009E257808D8008C30D900D9
:100BA0007808DA0075235508D8009E257808D80003
:100BB0008A30D9007808DA0075235608D8009E25B7
:100BC0007808D8008430D9007808DA0075235708EF
:100BD000D8009E257808D8008230D9007808DA003D
:100BE0007523D8019E257808D8008030D900780870
:100BF000DA00752308002030581E3030D90057081D
:100C0000F700D71F0B2EF709F70A7708D7002D300A
:100C1000D900D81758145708DD006430DE00892544
:100C20007708D70030307807DA005708DD000A303F
:100C3000DE00892530307707DC0030307807DB00B4
:100C40005908F70030305A0203192A2ED814D81B3D
:100C500058153E2E5908DA002030D90030305B029A
:100C60000319362E5814D81BD8143E2E031D5814C1
:100C7000031D3E2E5A08DB002030DA005819452E9D
:100C8000D818482E58184B2E4E2E5908DD00C32474
:100C90005A08DD00C3245B08DD00C3245C08DD00C6
:100CA000C32408000B08D6008B13831603178C1778
:100CB0000C140000000083120313D61B8B170318BB
:100CC000892E03170C087F390313D60003170D086C
:100CD0000313D70003170F080313D8005608DD00CD
:100CE000C324570803178D000313580803178F00F8
:100CF00003130B08D9008B13831603178C170C14DE
:100D00000000000083120313D91B8B17D50B892E0B
:100D1000A82E03170C0D0E0D7F390313D6000317F1
:100D20000D080313D70003170F080313D800560844
:100D3000DD00C324570803178D0003135808031759
:100D40008F008D0A03198F0A03100313D50B522E3F
:100D50000800D708031DB82ED8010530D900192482
:100D6000223003178D0002308F000313FE24EC2E77
:100D7000570BC62ED8010530D9001924253003178A
:100D80008D0002308F000313FE24EC2E5708023C26
:100D9000031DD62ED8010530D90019242D30031794
:100DA0008D0002308F000313FE24EC2ED801023098
:100DB000D9001924353003178D0002308F0003133A
:100DC000FE24D8010530D9001924403003178D00C6
:100DD00002308F000313FE2408005D08A1002108E3
:100DE0001F3C03182B2F21087F3C031C2B2FA00135
:100DF0002008043C031C282F21084F3C031C0E2F05
:100E00002108E03EDF00E0000530E1008A24780898
:100E1000A200200822070420F800A30021084F3C6C
:100E20000318202F2108B03EDF00E0000530E1006C
:100E30008A247808A20020082207F820F800A300DE
:100E40002308DE00DE095E08DF002624A00AF82E53
:100E5000FF30DF00262408000B08D6008B13831612
:100E600003178C170C140000000083120313D61B09
:100E70008B1703170C087F390319802F0313D60033
:100E800003170D080313D70003170F080313D80027
:100E90005608DD00ED26570803178D000313580888
:100EA00003178F0003130B08D9008B138316031746
:100EB0008C170C140000000083120313D91B8B172E
:100EC00003170C0D0E0D7F390319802F0313D60065
:100ED00003170D080313D70003170F080313D800D7
:100EE0005608DD00ED26570803178D000313580838
:100EF00003178F008D0A03198F0A03132C2F031772
:100F0000031308002030581E3030D9005708F7006E
:100F1000D71F922FF709F70A7708D7002D30D9008D
:100F2000D81758145708DD006430DE00892577088B
:100F3000D70030307807DA005708DD000A30DE00CD
:100F4000892530307707DC0030307807DB0059081E
:100F5000F70030305A020319B12FD814D81B581596
:100F6000C52F5908DA002030D90030305B02031950
:100F7000BD2F5814D81BD814C52F031D5814031D9A
:100F8000C52F5A08DB002030DA005819CC2FD818AA
:100F9000CF2F5818D22FD52F5908DD00ED265A082B
:100FA000DD00ED265B08DD00ED265C08DD00ED26AA
:100FB00008000830DA02031CE92F5A30840083133A
:100FC0000310800C00080319E92FE72F0000800BA5
:040FD000E62F080000
:101000000530D8000230D9008A1119248A15AB089E
:10101000031D23285508093C031C1B283030DD0024
:101020008A11ED268A155508D7001830D8008A1184
:1010300082278A1522285508D7001830D8008A112F
:1010400082278A153B285508093C031C3428303078
:10105000DD008A11C3248A155508D7001830D8003E
:101060008A11FB258A153B285508D7001830D8006F
:101070008A11FB258A153A30DD008A11C3248A15AE
:101080002B0B5B285608093C031C53283030DD002D
:101090008A11ED268A155608D7001830D8008A1113
:1010A00082278A155A285608D7001830D8008A1186
:1010B00082278A1573285608093C031C6C28303097
:1010C000DD008A11C3248A155608D7001830D800CD
:1010D0008A11FB258A1573285608D7001830D800C6
:1010E0008A11FB258A150230D7008A11A9268A1594
:1010F00008000B08D6008B13831603178C170C14EB
:101100000000000083120313D61B8B170318B228AC
:1011100003170C087F390313D60003170D080313B8
:10112000D70003170F080313D8005608DD008A11F3
:10113000ED268A15570803178D0003135808031767
:101140008F0003130B08D9008B13831603178C171A
:101150000C140000000083120313D91B8B17D50B4E
:10116000B228D32803170C0D0E0D7F390313D600B8
:1011700003170D080313D70003170F080313D80034
:101180005608DD008A11ED268A15570803178D00D1
:101190000313580803178F008D0A03198F0A0310D1
:1011A0000313D50B79280800A808031D0D2AD201C6
:1011B000D301D8010130D9008A1119248A154008B9
:1011C000093C031CF0283030DD008A11C3248A1545
:1011D0004008D7001830D8008A11FB258A15F72857
:1011E0004008D7001830D8008A11FB258A1541081D
:1011F000093C031C0D292F30DD008A11C3248A15F8
:101200003030DD008A11C3248A154108D700183018
:10121000D8008A11FB258A1519292F30DD008A1183
:10122000C3248A154108D7001830D8008A11FB253D
:101230008A154208093C031C3129483003178D00E8
:1012400002308F00031004300313D5008A11522698
:101250008A154208D7001830D8008A11FB258A1554
:1012600047292F30DD008A11C3248A153230DD0072
:101270008A11C3248A153030DD008A11C3248A15EF
:101280004208D7001830D8008A11FB258A15D801EA
:101290000230D9008A1119248A153708093C031C29
:1012A0005E293030DD008A11C3248A153708D70043
:1012B0001830D8008A11FB258A1565293708D70010
:1012C0001830D8008A11FB258A153808093C031C00
:1012D0007B293A30DD008A11C3248A153030DD00C5
:1012E0008A11C3248A153808D7001830D8008A110B
:1012F000FB258A1587293A30DD008A11C3248A1517
:101300003808D7001830D8008A11FB258A1539080B
:10131000093C031C9D293A30DD008A11C3248A153B
:101320003030DD008A11C3248A153908D7001830FF
:10133000D8008A11FB258A15A9293A30DD008A11C7
:10134000C3248A153908D7001830D8008A11FB2524
:101350008A15D8010330D9008A1119248A154C083E
:10136000093C031CCA293030DD008A11C3248A15C8
:101370004C08D7001830D8008A11FB258A157E301A
:10138000DD008A11C3248A154330DD008A11C3248D
:101390008A15DB294C08D7001830D8008A11FB25A4
:1013A0008A157E30DD008A11C3248A154330DD00A2
:1013B0008A11C3248A15D8010430D9008A1119244E
:1013C0008A15D2015208043C031CF3294430520709
:1013D00084008313000BF0290130D300F329F12995
:1013E000D301D20AE229530BFF294C3003178D0099
:1013F00002308F008A110313FE248A15082A513007
:1014000003178D0002308F008A110313FE248A1502
:10141000D7018A11A9268A15CE2D2908FC3E03186A
:10142000CE2D043ECF2DD801D9018A1119248A1559
:10143000563003178D0002308F008A110313FE24EB
:101440008A15D8010130D9008A1119248A15AC08EF
:10145000031D342A5E3003178D0002308F008A117D
:1014600003132C278A153D2A663003178D0002309E
:101470008F008A110313FE248A15D8010230D90087
:101480008A1119248A152C0B4F2A6C3003178D00F2
:1014900002308F008A1103132C278A15582A7430C2
:1014A00003178D0002308F008A110313FE248A1562
:1014B000D8010330D9008A1119248A152C08023C5E
:1014C000031D6C2A7A3003178D0002308F008A11B9
:1014D00003132C278A15752A823003178D000230DA
:1014E0008F008A110313FE248A150130D7008A1158
:1014F000A9268A15CE2DCA08031D842A3A08D500CC
:101500003B08D6000020892A0330D7008A11A9267B
:101510008A15CE2DCB08031D3A2C3C08D2003D087D
:10152000D3003E08D4003F08D500D801D9018A1164
:1015300019248A15E53003178D0002308F008A11B7
:101540000313FE248A15D8010230D9008A11192408
:101550008A15AB08031DC52A5208093C031CBD2A85
:101560003030DD008A11ED268A155208D700183078
:10157000D8008A1182278A15C42A5208D700183049
:10158000D8008A1182278A15DD2A5208093C031CDB
:10159000D62A3030DD008A11C3248A155208D700BC
:1015A0001830D8008A11FB258A15DD2A5208D70089
:1015B0001830D8008A11FB258A152F30DD008A11DA
:1015C000C3248A152B0BFD2A5308093C031CF52A5A
:1015D0003030DD008A11ED268A155308D700183007
:1015E000D8008A1182278A15FC2A5308D7001830A0
:1015F000D8008A1182278A15152B5308093C031C31
:101600000E2B3030DD008A11C3248A155308D70011
:101610001830D8008A11FB258A15152B5308D700DE
:101620001830D8008A11FB258A152F30DD008A1169
:10163000C3248A152B08023C031D4B2B5408093C7C
:10164000031C392B3230DD008A11ED268A1530302B
:10165000DD008A11ED268A153030DD008A11ED2675
:101660008A155408D7001830D8008A1182278A15A5
:101670004A2B3230DD008A11ED268A153030DD002C
:101680008A11ED268A155408D7001830D8008A111F
:1016900082278A15772B5408093C031C662B3230AD
:1016A000DD008A11C3248A153030DD008A11C3247D
:1016B0008A153030DD008A11C3248A155408D700FA
:1016C0001830D8008A11FB258A15772B3230DD00BF
:1016D0008A11C3248A153030DD008A11C3248A158B
:1016E0005408D7001830D8008A11FB258A15D80174
:1016F0000330D9008A1119248A152B08033C031DD5
:10170000DB2B5508013A0319952B033A03199F2B3C
:10171000013A0319A92B073A0319B32B013A03190C
:10172000BD2B033A0319C72BD12BED3003178D00C6
:1017300002308F008A1103132C278A15DA2BF5301B
:1017400003178D0002308F008A1103132C278A158E
:10175000DA2BFD3003178D0002308F008A1103133E
:101760002C278A15DA2B053003178D0003308F00E4
:101770008A1103132C278A15DA2B0D3003178D00DD
:1017800003308F008A1103132C278A15DA2B1530AA
:1017900003178D0003308F008A1103132C278A153D
:1017A000DA2B1D3003178D0003308F008A110313CD
:1017B0002C278A15342C4308013A0319EF2B033ADE
:1017C0000319F92B013A0319032C073A03190D2CBD
:1017D000013A0319172C033A0319212C2B2C25301D
:1017E00003178D0003308F008A110313FE248A151E
:1017F000342C2D3003178D0003308F008A11031312
:10180000FE248A15342C353003178D0003308F00E9
:101810008A110313FE248A15342C3D3003178D00E2
:1018200003308F008A110313FE248A15342C4530AF
:1018300003178D0003308F008A110313FE248A15CD
:10184000342C4D3003178D0003308F008A110313A1
:10185000FE248A15342C553003178D0003308F0079
:101860008A110313FE248A150230D7008A11A92693
:101870008A153F2C0330D7008A11A9268A15CE2D50
:10188000D201AA08031D092DD301D801D9018A115B
:1018900019248A15013003178D0002308F008A1138
:1018A0000313FE248A152C08033C031CAE2CD30121
:1018B0005308033C031CAD2C53082C02031D8A2C37
:1018C00001305307D400D8015408D9008A111924D3
:1018D0008A1553088A11F2218A15D400083003179B
:1018E0008D0002308F00031006300313D5007920DD
:1018F0005408D7001830D8008A1182278A150C3076
:1019000003178D0002308F00031007300313D5003A
:101910007920AB2C01305307D400D8015408D900EA
:101920008A1119248A1553088A11F2218A15D400C4
:10193000103003178D0002308F00031006300313A0
:10194000D5008A1152268A155408D7001830D800BD
:101950008A11FB258A15D30A582C032D2C08043C28
:10196000031D032D0130D3005308043C031C032D39
:1019700053082C02031DE32CD8015308D9008A1107
:1019800019248A1553088A11F2218A15D4001530BA
:1019900003178D0002308F00031006300313D500AB
:1019A00079205408D7001830D8008A1182278A1568
:1019B000193003178D0002308F0003100730031316
:1019C000D5007920012DD8015308D9008A11192496
:1019D0008A1553088A11F2218A15D4001D30031785
:1019E0008D0002308F00031006300313D5008A11DA
:1019F00052268A155408D7001830D8008A11FB25C2
:101A00008A15D30AB42C0130D7008A11A9268A1569
:101A1000CE2D0130D2005208053C031CCE2D5208B9
:101A20002A02031DCC2DC908031D682DD801D90138
:101A30008A1119248A15D33003178D0002308F00C4
:101A400003100C300313D5008A1152268A15520850
:101A5000D7001830D8008A11FB258A152030DD0008
:101A60008A11C3248A15013052022D3E840083134B
:101A70000008D30001305202323E84008313000874
:101A8000D4005308D5005408D60000200530D800F3
:101A90000330D9008A1119248A1501305202443EBC
:101AA00084008313000B5E2DDB3003178D000230A2
:101AB0008F008A110313FE248A15672DE030031767
:101AC0008D0002308F008A110313FE248A15CC2D5D
:101AD0002A08D300D801D9018A1119248A15AF30F8
:101AE00003178D0002308F0003100C300313D50054
:101AF0008A1152268A155308D7001830D8008A1147
:101B0000FB258A152030DD008A11C3248A15AC0814
:101B1000031DA92DD8010130D9008A1119248A1575
:101B2000B73003178D0002308F008A1103132C2762
:101B30008A15D8010230D9008A1119248A15BE30BD
:101B400003178D0002308F008A110313FE248A15BB
:101B5000C72DD8010130D9008A1119248A15C53042
:101B600003178D0002308F008A110313FE248A159B
:101B7000D8010230D9008A1119248A15CC300317F4
:101B80008D0002308F008A1103132C278A15013033
:101B9000D7008A11A9268A15D20A0B2D08000A142B
:101BA0008A100A158207132A7B2A8A2A402C831658
:101BB0008810831288100230D900F830DA008A11B8
:101BC000D9278A15D90BDD2D83168814023083128C
:101BD000D900F830DA008A11D9278A15D90BE92DF6
:101BE0008316881483120800DA015A08073C031C84
:101BF000132E8316881083128810FE2DFF2D0310DC
:101C0000D90C0318052E8810062E88148316881008
:101C10002730F700F70B0A2E0D2E88140F2E102EEA
:101C20008312DA0AF52D0800D9015908073C031C74
:101C3000362E83168810831288101E2E1F2E8316B0
:101C400088140430F700F70B232E262E000088148A
:101C5000831288182D2E03102E2E0314DA0C4F3009
:101C6000F700F70B312E342ED90A152E5A08F8003A
:101C70000800D301D725CC30D900F4254430D90051
:101C8000F425D308031D482E14267808D300412ECE
:101C9000D725CC30D900F425BE30D900F425142640
:101CA0007808D40014267808D5005508D7005408C1
:101CB000D600570CFA00560CF900FA0CF90CFA0C85
:101CC000F90CFA0CF90C7908D8005808F8008A15B4
:101CD0000A12772FD201D20152081D3C031C9B2E01
:101CE0008316061483120618822E83160614831296
:101CF0000618802E6430D4008A11D5238A15752EDB
:101D00009B2E992ED801D9018A1119248A15FB30EE
:101D100003178D0001308F008A110313FE248A15EA
:101D20000430D300FA30D4008A11D5238A15D30B9E
:101D3000922ED20A6C2E8A150A12992F03081F3987
:101D40008300A801A901AA01AB01AC010230B700D0
:101D50000430B8002D30B9000930BA003830BB006B
:101D60001230BC000630BD001030BE000230BF0093
:101D70000530C0000430C1000F30C2000230C30083
:101D8000C901CA01CB01CC01831603170908C03968
:101D9000890003131F129F1200300317880083125B
:101DA00087018801890183130313A601A701AD01EF
:101DB000AE01AF01B001B101B201B301B401B5018F
:101DC000B601C401C501C601C701C801D10183160E
:101DD00003170908C039890003131F129F1200302E
:101DE00003178800831203131F1083160108C739D5
:101DF00008388100831290010030F8009200003012
:101E000083169200831203178701880189018A11C2
:101E10000313B22B8A158A114F2C8A158A113A2482
:101E20008A158530D6008A1184238A157808D20055
:101E3000D7008A11AF248A157808B7008330D600FE
:101E40008A1184238A157808D200D7008A11AF241A
:101E50008A157808B8008130D6008A1184238A1543
:101E60007808D200D7008A11AF248A157808B90003
:101E70008730D6008A1184238A157808D200D700CB
:101E80008A11AF248A157808C0008930D6008A11DB
:101E900084238A157808D200D7008A11AF248A15C6
:101EA0007808C1008D30D6008A1184238A157808FD
:101EB000D200D7008A11AF248A157808C2008B306F
:101EC000D6008A1184238A157808D200D7008A1197
:101ED000AF248A157808C3000A168A1100280A124E
:101EE0008A15A808031D792F4C08D200392E7808CE
:101EF000CC00D420D1015108043C031CA02F443055
:101F0000510784008313000B9E2F2D30510784004E
:101F1000831300083702031D9E2F323051078400BF
:101F2000831300083802031D9E2FB908031D9E2F3E
:101F30006A2E44305107840083138001D10A7B2F1D
:041F4000112F6300FA
:102000008316061483120618A22883160614831258
:10201000061810286430D4000A12D5230A160528A1
:10202000A808031D17280130A800AC019D28280B23
:102030009D28A908031D202801302C07A9009D28F0
:10204000290B4528CA08031D28280130CA00442846
:102050003A08B7003B08B800D2010A1254250A1604
:10206000A9014008D2004108D3004208D400430827
:10207000D5003708D6003808D7000A12B5250A1649
:102080000A123A240A16CA019D282908023C031D97
:102090006E28CB08031D4F280130CB006D283C086B
:1020A000C0003D08C1003E08C2003F08C300013027
:1020B000D2000A1254250A16A9014008D20041088C
:1020C000D3004208D4004308D5003708D6003808AA
:1020D000D7000A12B5250A16CB019D282908033C12
:1020E000031D9D28AA08031D792801302C07AA008A
:1020F0009D28C908031D802801302C07C9009D2890
:10210000490B912801302A02443E84008313013098
:102110008000AA01C9010230D2000A1254250A1611
:102120009D284908023C031D9D2801302A02443E97
:10213000840083138001AA01C901AC01AB010A121A
:102140003A240A168316081483120818F2288316F4
:10215000081483120818B2280A30D4000A12D523B2
:102160000A16A728280BEF28A908031DB928A801DB
:10217000EF28290BC828CA08031DC428AB0A2B085E
:10218000013C031CAB01C728A901AC01CA01EF281F
:102190002908023C031DDA28CB08031DD528AB0A09
:1021A0002B08033C031CAB01D928CB01A90101304A
:1021B000AC00EF28AA08031DE128A9010230AC00F9
:1021C000EF28C908031DEA28AB0A2B08013C031CB1
:1021D000AB01EF28C901AA01A9010230AC000A1223
:1021E0003A240A1683160815831208199D298316A6
:1021F0000815831208199D29280B8B29A908031D8E
:102200000729AC0A2C08023C031CAC018B29290BC2
:102210001B29CA08031D1A29AB08031D1529BA0A70
:102220003A08173C031CBA011A29BB0A3B083B3C7D
:10223000031CBB018B292908023C031D4429CB0840
:10224000031D43292B08FC3E03184329043E532A4F
:10225000BC0A3C081F3C03182F290130BC0043294D
:10226000BD0A3D080C3C031CBD014329BE0A3E08C3
:10227000633C031CBE014329BF0A3F08073C031807
:1022800043290130BF008B292908033C031D8B29FA
:10229000AA08031D5129AC0A2C08043C031CAC01FC
:1022A0008B29C908031D8329AB08031D6D29013043
:1022B0002A022D3E84008313800A01302A022D3E1B
:1022C000840083130008173C03186C2901302A028C
:1022D0002D3E840083138001822901302A02323E80
:1022E00084008313800A01302A02323E8400831363
:1022F00000083B3C0318822901302A02323E840048
:10230000831380018B29AC0A2C08013C031CAC010F
:1023100001302C07C9000A123A240A160A128A153B
:10232000D4200A168A110230D200FA30D4000A12E0
:10233000D5230A16D20B9529F72883168815831200
:102340008819502A8316881583128819502A280B59
:102350003E2AA908031DB429AC08031DB229023086
:10236000AC00B329AC033E2A290BC929AB08031DD5
:10237000C129BA08031DBF291730BA00C029BA0302
:10238000C829BB08031DC7293B30BB00C829BB03B4
:102390003E2A2908023C031DF1292B08FC3E0318A4
:1023A000F029043E5B2ABC08031DD9291F30BC005C
:1023B000DA29BC03F029BD08031DE1290230BD0064
:1023C000E229BD03F029BE08031DE8296330BE00E1
:1023D000BE03F0293F0BEF290730BF00F029BF03F0
:1023E0003E2A2908033C031D3E2AAA08031D002A91
:1023F000AC08031DFE290430AC00FF29AC033E2AC3
:10240000C908031D342AAB08031D1D2A01302A0206
:102410002D3E840083138008031D162A01302A02F2
:102420002D3E84008313173080001C2A01302A02BD
:102430002D3E840083138003332A01302A02323E6A
:10244000840083138008031D2D2A01302A02323EA6
:10245000840083133B308000332A01302A02323E4D
:102460008400831380033E2AAC08031D3A2A0130FE
:10247000AC003B2AAC0301302C07C9000A123A24F5
:102480000A160A128A15D4200A168A110230D200BE
:10249000FA30D4000A12D5230A16D20B482AA229F0
:1024A0008A150A126F2F0A108A140A118207282926
:1024B000302936293C290A108A140A118207D329A7
:0624C000DB29E329EA29F3
:04400E00E22CFF3F62
:00000001FF
;PIC16F887
;CRC=9E51  CREATED="14-Apr-16 14:10"
